S0110000536D617274486F6D652E7372656383
S11300000C942A000C943F000C943F000C943F0085
S11300100C943F000C943F000C943F000C943F0060
S11300200C943F000C943F000C943F000C943F0050
S11300300C943F000C943F000C943F000C943F0040
S11300400C943F000C943F000C943F000C943F0030
S11300500C943F0011241FBECFE5D8E0DEBFCDBF16
S113006010E0A0E6B0E0E4E2F6E002C005900D92F4
S1130070A037B107D9F70E9405030C9410030C9420
S11300800000683008F078C04130C1F5813091F04B
S113009028F08230D9F0833029F170C02AB381E08E
S11300A090E002C0880F991F6A95E2F7822B8ABB01
S11300B080E0089527B381E090E002C0880F991F83
S11300C06A95E2F7822B87BB80E0089524B381E030
S11300D090E002C0880F991F6A95E2F7822B84BBD7
S11300E080E0089521B381E090E002C0880F991F59
S11300F06A95E2F7822B81BB80E00895411140C0EC
S1130100813099F028F08230E9F0833041F13AC02F
S11301102AB381E090E002C0880F991F6A95E2F744
S1130120809582238ABB80E0089527B381E090E024
S113013002C0880F991F6A95E2F78095822387BBD6
S113014080E0089524B381E090E002C0880F991FF5
S11301506A95E2F78095822384BB80E0089521B3F9
S113016081E090E002C0880F991F6A95E2F78095BC
S1130170822381BB80E0089581E0089581E00895A1
S113018081E0089581E00895683008F078C0413036
S1130190C1F5813091F028F08230D9F0833029F113
S11301A070C02BB381E090E002C0880F991F6A955C
S11301B0E2F7822B8BBB80E0089528B381E090E0C6
S11301C002C0880F991F6A95E2F7822B88BB80E0F2
S11301D0089525B381E090E002C0880F991F6A95C5
S11301E0E2F7822B85BB80E0089522B381E090E0A2
S11301F002C0880F991F6A95E2F7822B82BB80E0C8
S11302000895411140C0813099F028F08230E9F01E
S1130210833041F13AC02BB381E090E002C0880FF3
S1130220991F6A95E2F7809582238BBB80E008953D
S113023028B381E090E002C0880F991F6A95E2F725
S11302408095822388BB80E0089525B381E090E007
S113025002C0880F991F6A95E2F78095822385BBB7
S113026080E0089522B381E090E002C0880F991FD6
S11302706A95E2F78095822382BB80E0089581E04D
S1130280089581E0089581E0089581E0089568303B
S1130290C0F5813091F028F08230D9F0833029F113
S11302A032C089B390E002C0959587956A95E2F7CC
S11302B08170FA01808380E0089586B390E002C0E3
S11302C0959587956A95E2F78170FA01808380E0BD
S11302D0089583B390E002C0959587956A95E2F7F7
S11302E08170FA01808380E0089580B390E002C0B9
S11302F0959587956A95E2F78170FA01808380E08D
S1130300089581E0089581E0089540E060E083E08D
S11303100E94410040E061E083E00E94410040E02F
S113032062E083E00E94410040E063E083E00E94D9
S1130330410041E060E083E00E94C40041E061E0EC
S113034083E00E94C40041E062E083E00E94C400B4
S113035041E063E083E00E94C40041E064E083E0A4
S11303600E94410041E065E083E00E94410041E0D9
S113037066E083E00E94410041E067E083E00E9480
S1130380410041E064E083E00E94C40041E065E094
S113039083E00E94C40041E066E083E00E94C40060
S11303A041E067E083E00E94C4000895AF92BF92E9
S11303B0CF92DF92EF92FF920F931F93CF93DF932D
S11303C0CDB7DEB769970FB6F894DEBF0FBECDBFC9
S11303D080E1E0E6F0E0DE01119601900D928A954D
S11303E0E1F7198A81E08A8B92E09B8B93E09C8BE6
S11303F094E09D8B95E09E8B96E09F8B97E0988F81
S1130400898FB12C46C0CB2CD12CE5E1F0E0EC0F68
S1130410FD1FEC0DFD1DA08040E06A2D83E00E94CD
S1130420C40010E02EC0E12EF12CE1E1F0E0EC0F6D
S1130430FD1FEE0DFF1D0081AE01475E5F4F602F73
S113044083E00E944701898D81111AC007C0AE0163
S1130450475E5F4F602F83E00E944701898D8823A8
S1130460B1F3EE0CFF1CEE0CFF1C81E090E08C0F4E
S11304709D1FE80EF91EF701EC0DFD1D80810EC0D5
S11304801F5F143080F241E06A2D83E00E94C400B3
S1130490B39493E09B1508F0B6CF8FEF69960FB62F
S11304A0F894DEBF0FBECDBFDF91CF911F910F91A6
S11304B0FF90EF90DF90CF90BF90AF900895CF93CF
S11304C0C82F482F417060E082E00E94C400C1FB45
S11304D0442740F961E082E00E94C400C2FB442743
S11304E040F962E082E00E94C400C3FB442740F963
S11304F063E082E00E94C400CF91089541E067E088
S113050082E00E94C4008FE39FE10197F1F700C0ED
S1130510000040E067E082E00E94C4000895CF93A9
S1130520C82F40E065E082E00E94C40040E066E03D
S113053082E00E94C4008C2F82958F700E945F021B
S11305400E947E028C2F0E945F020E947E02CF9145
S1130550089541E065E082E00E94410041E066E0E8
S113056082E00E94410041E067E082E00E94410095
S113057041E060E082E00E94410041E061E082E00D
S11305800E94410041E062E082E00E94410041E0BB
S113059063E082E00E9441002FEF83EF91E021505D
S11305A080409040E1F700C0000082E00E945F02BA
S11305B00E947E0282E00E945F020E947E028CE022
S11305C00E945F020E947E028CE00E948F0281E002
S11305D00E948F020895CF93C82F41E065E082E026
S11305E00E94C40040E066E082E00E94C4008C2FB8
S11305F082958F700E945F020E947E028C2F0E945F
S11306005F020E947E02CF9108950E94A9020E9477
S113061085010E94D6018F3FE1F30E94EB02F9CFDE
S1070620F894FFCF78
S11306243738392F343536583132332D43303D2B56
S9030000FC
